:0400030002080000EF
:03000B0002000EE2
:10000E00C0E00509E50970020508758901758AFFCA
:10001E00758CDCE509640145087008C2A2C2A3C252
:10002E00A4B2A0E509640245087006D2A2C2A3C21A
:10003E00A4E509640345087006C2A2D2A3C2A4E5D2
:10004E0009640445087006D2A2D2A3C2A4E50964CD
:10005E000545087006C2A2C2A3D2A4E509640645EE
:10006E00087006D2A2C2A3D2A4E50964074508709F
:10007E0006C2A2D2A3D2A4E50964084508700AD22A
:0C008E00A2D2A3D2A4F508F509D0E032FC
:10012600758901758AFF758CDC75A882D28C80FE74
:0300000002009A61
:0C009A00787FE4F6D8FD7581090200E1D2
:1000A600020126E493A3F8E493A34003F68001F249
:1000B60008DFF48029E493A3F85407240CC8C3335B
:1000C600C4540F4420C8834004F456800146F6DF2A
:1000D600E4800B0102040810204080900003E47EB7
:1000E600019360BCA3FF543F30E509541FFEE4931F
:1000F600A360010ECF54C025E060A840B8E493A3E6
:10010600FAE493A3F8E493A3C8C582C8CAC583CA10
:10011600F0A3C8C582C8CAC583CADFE9DEE780BEC8
:0100070000F8
:00000001FF
