:100003001200A51201197B41E4FDFF12010F7B428F
:100013007D01E4FF12010F7B447D02E4FF12010F17
:100023007B557D03E4FF12010F7B4C7D04E4FF123B
:10003300010F7B4C7D05E4FF12010F7B417D06E43C
:10004300FF12010F7B487D07E4FF12010FE4FD7FE0
:10005300011200BF7B4BE4FD7F0112010F7B417D49
:10006300017F0112010F7B4D7D027F0112010F7B86
:10007300417D037F0112010F7B4C7D047F0112013F
:050083000FE4FEFF2266
:10008800E4FFFEE4FDFC0DBD00010CED64464C7080
:0C009800F50FBF00010EEF64324E70E760
:0100A4002239
:030121001200D4F5
:030124000200884E
:0D00F600EF54F0F580D2A7120124C2A7221A
:1000D400AB07C2A6C2A51200F6EBC454F0FF02009F
:0100E400F625
:1000E500AB07D2A6C2A51200F6EBC454F0FF02007E
:0100F500F614
:1000A5007F281201217F0C1201217F061200D41234
:0A00B50001247F011200D40201248F
:1000BF00EF7006ED2480FA8007BF0104ED24C0FA2B
:0500CF00AF020200D4A5
:0A010F00A9031200BFAF010200E5D2
:080119007F011200D402012451
:03000000020103F7
:0C010300787FE4F6D8FD75810702000348
:00000001FF
