:03000000020101F9
:0C010100787FE4F6D8FD758107020084C9
:0300EC001200EF10
:1000EF00758901E4F58AF58CD28C308DFDC28CC2F6
:0200FF008D2250
:10008400C2A2C2A3C2A41200031200EFD2A2C2A34E
:10009400C2A41200031200EFC2A2D2A3C2A412008F
:1000A400031200EFD2A2D2A3C2A41200031200EFE3
:1000B400C2A2C2A3D2A41200031200EFD2A2C2A30E
:1000C400D2A41200031200EFC2A2D2A3D2A412003F
:1000D400031200EFD2A2D2A3D2A41200031200EFA3
:0800E400D2A2D2A3D2A480989D
:1000030075803F1200EC7580061200EC75805B1260
:1000130000EF1200EF75804F1200EF1200EF7580B2
:10002300661200EF1200EF75806D1200EF1200EF01
:1000330075807D1200EF1200EF7580071200EF123A
:1000430000EF75807F1200EF1200EF75806F1200D2
:10005300EF1200EF7580771200EF1200EF75807CCE
:100063001200EF1200EF7580391200EF1200EF75E6
:10007300805E1200EF1200EF7580791200EF02002C
:01008300EF8D
:00000001FF
