:0E01CC0054696D653A2000446174653A200064
:0C01F600758920758DFD759850D28E2201
:07020E003098FDC298AF9982
:0102150022C6
:0901BB0075F00A84E5F02430FF20
:0801C4008F993099FDC29922C8
:100003008F0E8D0F8B107F801201DA7BFF7A0179BF
:10001300CC120151E50E75F00A842430FF1202164A
:10002300E50E75F00A84E5F02430FF1202167F3ADC
:10003300120216E50F75F00A842430FF120216E54A
:100043000F75F00A84E5F02430FF1202167F3A128E
:100053000216E51075F00A842430FF120216E5102B
:0C00630075F00A84E5F02430FF0202165C
:10006F008F0E8D0F8B107FC01201DA7BFF7A017913
:10007F00D3120151E50E75F00A842430FF120216D7
:10008F00E50E75F00A84E5F02430FF1202167F2F7B
:10009F00120216E50F75F00A842430FF120216E5DE
:1000AF000F75F00A84E5F02430FF1202167F2F122D
:1000BF000216E51075F00A842430FF120216E510BF
:0C00CF0075F00A84E5F02430FF020216F0
:1000DB00AE07EE75F00A842430FF1201C4EE120154
:1000EB00BB7F2F1201C4ED75F00A842430FF12017F
:1000FB00C4ED1201BB7F2F1201C4EB75F00A8424EF
:0E010B0030FF1201C4EB1201BB7F0A0201C4D7
:1001190075080C750922750A38750B08750C087570
:100129000D181201761201F6AB0AAD09AF081200DB
:1001390003AB0DAD0CAF0B12006FAB0DAD0CAF0BDC
:080149001200DB1201AC80E0A2
:0301A9001201DA66
:0E01AC00E4FFFE0FBF00010EBE75F8BF31F577
:0101BA002222
:0E01DA008F80C2A6C2A5D2A71201ACC2A72276
:0E01E8008F80D2A6C2A5D2A71201ACC2A72258
:030216000201E8FA
:100151008B118A128913AB11AA12A9131201906093
:10016100130513E5137002051214F9120190FF1221
:05017100021680E222ED
:100176007F381201A97F0C1201A97F061201DA123B
:0A01860001AC7F011201DA0201ACA6
:03000000020202F7
:0C020200787FE4F6D8FD75811302011925
:10019000BB010689828A83E0225002E722BBFE026D
:0901A000E32289828A83E49322A0
:00000001FF
