:05006B007F4112009B23
:10007000E4FFFEE4FDFC0DBD00010CED64644C707A
:0C008000F50FBF00010EEF64644E70E746
:01008C002251
:0300B500020070D6
:0E008D008F80C2A6C2A5D2A71200B5C2A722BC
:0E009B008F80D2A6C2A5D2A71200B5C2A7229E
:100043007F0112008D1200707F3812008D12007034
:100053007F0E12008D1200707F1012008D1200703F
:080063007F8012008D02007085
:10000300E4F58012004312006B7F4212009B120042
:10001300707F4412009B1200707F5512009B1200E8
:10002300707F4C12009B1200707F4C12009B1200D9
:100033007012006B7F4812009B120070E4FEFF22D7
:030000000200A952
:0C00A900787FE4F6D8FD758107020003A3
:00000001FF
