:1000030048656C6C6F20776F726C642054686973F9
:1000130020697320416264756C6C6168205A756E47
:080023006F7261696E0A0D00A5
:0C008500758920758DFD759850D28E2273
:08009D008F993099FDC29922F0
:10002B008B088A09890AAB08AA09A90A12006C6015
:10003B0013050AE50A7002050914F912006CFF1288
:05004B00009D80E2228F
:100050001200857BFF7A00790312002BE4FFFE0F6C
:0C006000BF00010EBE75F8BF30F580E750
:030000000200916A
:0C009100787FE4F6D8FD75810A0200506B
:10006C00BB010689828A83E0225002E722BBFE0292
:09007C00E32289828A83E49322C5
:00000001FF
