:100A3B00437573746F6D2063686172204C4344007F
:100A4B00000A15110A040000041F11111F1F1F1F9C
:100A5B00040E0E0E1F0004000103071F1F070301E6
:100A6B0001030509090B1B180A0A1F11110E0404B7
:100A7B0000000A0004110E00000A1F1F0E040000E4
:080B1B00C2A5D2A77F017E00F4
:100B2300E4FDFCC3ED9FEC9E5015E4FBFA0BBB0008
:0F0B3300010AEB64704A70F50DBD00010C80E4FF
:010B42002290
:0E0B63008F80C2A6120B1BC2A77F05020B23B8
:0E0B71008F80D2A6120B1BC2A77F05020B239A
:060AF0008B488A49894A87
:100AF600E4F54BF54CAB48AA49A94A854C82854B8F
:100B0600831208F6FF600D120B71054CE54C70E57B
:040B1600054B80E12A
:010B1A0022B8
:100AC2008F4D8D4E8B4F8A508951E54D7008E54E02
:100AD200540F4480800BE54DB4010AE54E540F4497
:0E0AE200C0FF120B63AB4FAA50A951020AF0DD
:100B43007F147E00120B237F38120B637F0C120B72
:100B5300637F06120B637F01120B637F80020B63BB
:060A8B008B488A49894AEC
:100A9100EFC39408502AEF75F008A42440FF120B0D
:100AA10063E4F54BAB48AA49A94A854B827583009B
:100AB1001208F6FF120B71054BE54BC3940840E495
:010AC1002212
:1009230078087C007D007BFF7A0A794B7E007F0884
:100933001208D078107C007D007BFF7A0A79537E01
:10094300007F081208D078187C007D007BFF7A0AAC
:10095300795B7E007F081208D078207C007D007BC5
:10096300FF7A0A79637E007F081208D078287C001A
:100973007D007BFF7A0A796B7E007F081208D078AE
:10098300307C007D007BFF7A0A79737E007F08123A
:1009930008D078387C007D007BFF7A0A797B7E0063
:1009A3007F081208D078407C007D007BFF7A0A79AB
:1009B300837E007F081208D0120B437B007A0079F4
:1009C30008E4FF120A8B7B007A0079107F01120A78
:1009D3008B7B007A0079187F02120A8B7B007A00E6
:1009E30079207F03120A8B7B007A0079287F041217
:1009F3000A8B7B007A0079307F05120A8B7B007AA1
:100A03000079387F06120A8B7B007A0079407F07D2
:100A1300120A8B7F80120B637BFF7A0A793B120ADF
:100A2300F07FC0120B63E4F9AF01120B717F201248
:080A33000B7109B908F280FE05
:03000000020B7F71
:0C0B7F00787FE4F6D8FD7581510209234F
:10080000E709F608DFFA8046E709F208DFFA803EDA
:1008100088828C83E709F0A3DFFA8032E309F608C7
:10082000DFFA8078E309F208DFFA807088828C832F
:10083000E309F0A3DFFA806489828A83E0A3F608E3
:10084000DFFA805889828A83E0A3F208DFFA804CBD
:1008500080D280FA80C680D4806980F28033801094
:1008600080A680EA809A80A880DA80E280CA8033FD
:1008700089828A83ECFAE493A3C8C582C8CCC58375
:10088000CCF0A3C8C582C8CCC583CCDFE9DEE78045
:100890000D89828A83E493A3F608DFF9ECFAA9F0C4
:1008A000EDFB2289828A83ECFAE0A3C8C582C8CC1A
:1008B000C583CCF0A3C8C582C8CCC583CCDFEADE33
:1008C000E880DB89828A83E493A3F208DFF980CC95
:1008D00088F0EF60010E4E60C388F0ED2402B4048E
:1008E0000050B9F582EB2402B4040050AF23234535
:0608F00082239008507302
:1008F600BB010CE58229F582E5833AF583E02250B7
:1009060006E92582F8E622BBFE06E92582F8E22200
:0D091600E58229F582E5833AF583E493221A
:00000001FF
