:100A2500435553544F4D2043484152414354455239
:010A350000C0
:030A02001209F4E2
:0E0A0500E4FFFE0FBF00010EBE17F8BF71F533
:010A130022C0
:1009B8007F38120A367F0C120A367F06120A367FF3
:0909C80001120A367F80020A3692
:0E0A36008F80C2A6C2A5D2A7120A05C2A722AF
:0A09EA001209F4E4FF1209F4E4FF1F
:0E09F4008F80D2A6C2A5D2A7120A05C2A722E2
:100993008B088A09890AAB08AA09A90A1209D16036
:1009A30013050AE50A7002050914F91209D1FF12A9
:0509B30009F480E222BE
:100800007F40120A36E4FF1209F47F0A1209F47FCE
:10081000151209F47F111209F47F0A1209F47F04FA
:100820001209EA7FC0120A36E4FF120A027F481258
:100830000A367F041209F47F0E1209F47F0E1209A2
:10084000F47F0E1209F47F1F1209EF7F041209EFE3
:100850007FC1120A367F01120A027F50120A367FC8
:100860001F1209F47F151209F47F1F1209F47F1F6C
:100870001209F47F0E1209F47F0A1209F47F1B1289
:1008800009EF7FC2120A367F021209F4120A057FAD
:1008900058120A36E4FF1209F47F011209F47F03AB
:1008A0001209F47F161209F47F1C1209F47F081252
:1008B00009EA7FC3120A367F031209F4120A057F80
:1008C00060120A367F011209F47F031209F47F0FC8
:1008D0001209F47F0F1209F47F0F1209F47F03123B
:1008E00009F47F011209EF7FC4120A367F0412094E
:1008F000F4120A057F68120A367F011209F47F0399
:100900001209F47F051209F47F091209F47F091214
:1009100009F47F0B1209F47F1B1209F47F181209E6
:10092000F47FC5120A367F051209F4120A057F709A
:10093000120A36E4FF1209F47F0E1209F47F151231
:1009400009F47F1B1209F47F0E1209F47F0E1209BD
:10095000EA7FC6120A367F061209F4120A057F786A
:10096000120A367F0E1209F47F111209F47F111258
:1009700009F47F1F1209F47F1B1209F47F1B12096F
:10098000F47F1F1209EF7FC7120A367F071209F49E
:03099000020A0553
:100A14001209B87BFF7A0A7925120993120800801B
:010A2400EFE2
:03000000020A44AD
:0C0A4400787FE4F6D8FD75810A020A14E0
:1009D100BB010689828A83E0225002E722BBFE0224
:0909E100E32289828A83E4932257
:00000001FF
