:100A3B001430003F0006005B004F0066006D007D28
:100A4B000007007F00670C220003000D0008000464
:100A5B000000000210120001000400000000000062
:100A6B000000000000080A08000100020003000457
:020A7B00000574
:1009E100D2A4D2A3D2A2E4FF120800D2A4D2A3C2FD
:1009F100A27F01120800D2A4C2A3D2A27F021208D0
:100A010000D2A4C2A3C2A27F03120800C2A4D2A32F
:100A1100D2A27F04120800C2A4D2A3C2A27F0512EF
:100A21000800C2A4C2A3D2A27F06120800C2A4C2B7
:0A0A3100A3C2A27F0712080080A6EE
:100A7E00E4F52EF52F052FE52F7002052EB4F4F5B3
:100A8E00E52EB401F0E4F52EF52F052FE52F7002BB
:0B0A9E00052EB410F5E52EB427F02261
:100800008F45EF25E02412F8E6FC08E664014C7001
:1008100013F545853380120A7E0545C3E54564809E
:10082000948A40EFEF25E02412F8E6FC08E64C70CD
:1008300013F545853180120A7E0545C3E545648080
:10084000948A40EFEF25E02412F8E6FC08E6640203
:100850004C7013F545853580120A7E0545C3E54584
:100860006480948A40EFEF25E02412F8E6FC08E665
:1008700064034C7013F545853780120A7E0545C325
:10088000E5456480948A40EFEF25E02412F8E6FC09
:1008900008E664044C7013F545853980120A7E051C
:1008A00045C3E5456480948A40EFEF25E02412F8C3
:1008B000E6FC08E664054C7013F545853B80120A9A
:1008C0007E0545C3E5456480948A40EFEF25E0242A
:1008D00012F8E6FC08E664064C7013F545853D8089
:1008E000120A7E0545C3E5456480948A40EFEF25F2
:1008F000E02412F8E6FC08E664074C7013F5458521
:100900003F80120A7E0545C3E5456480948A40EF26
:10091000EF25E02412F8E6FC08E664084C7013F5B5
:1009200045854180120A7E0545C3E5456480948A69
:1009300040EFEF25E02412F8E6FE08E664094E7069
:1009400013F545854380120A7E0545C3E54564805D
:05095000948A40EF2233
:030000000209559D
:0C095500787FE4F6D8FD75814502099C0E
:100961000209E1E493A3F8E493A34003F68001F2C2
:1009710008DFF48029E493A3F85407240CC8C33397
:10098100C4540F4420C8834004F456800146F6DF66
:10099100E4800B0102040810204080900A3BE47EB1
:1009A100019360BCA3FF543F30E509541FFEE4935B
:1009B100A360010ECF54C025E060A840B8E493A322
:1009C100FAE493A3F8E493A3C8C582C8CAC583CA4D
:1009D100F0A3C8C582C8CAC583CADFE9DEE780BE05
:010A7D000078
:00000001FF
