:03000000020A18D9
:0C0A1800787FE4F6D8FD7581110209FF1B
:1009DE00E4FFFE758901758A99758CEFD28C308D86
:1009EE00FDC28CC28D0FBF00010EEF641D4E70E371
:0109FE0022D6
:1009FF00750B11750A54750992750805AF0BAE0A80
:090A0F00AD09AC081208CE80F319
:0808CE008F0F8E0E8D0D8C0CB6
:1008D600E4F510F511E5111392A2E510A2E713E570
:1008E60011131392A3AE10E5117802CEA2E713CE30
:1008F60013D8F81392A4E47B0AFAF9F8AF0FAE0EF8
:10090600AD0DAC0C12099AAE02AF03120944AF0F3B
:10091600AE0EAD0DAC0CE47B0AFAF9F812099A8F0B
:100926000F8E0E8D0D8C0C1209DE0511E51170026D
:0D0936000510C39408E5106480948040987B
:010943002291
:10094400EE7052EFB40A00504C900954F828287302
:1009540002097202097602097A02097E02098202F8
:10096400098602098A02098E020992020996758093
:100974003F227580062275805B2275804F22758028
:10098400662275806D2275807D22758007227580B0
:060994007F2275806F2236
:10099A00C2D5E830E70FB2D5E4C39BFBE49AFAE488
:1009AA0099F9E498F8EC30E717B2D51209D0120891
:1009BA003CE4C39BFBE49AFAE499F9E498F88003CF
:1009CA0012083C30D50DE4C39FFFE49EFEE49DFD72
:0409DA00E49CFC227B
:1008000075F008758200EF2FFFEE33FECD33CDCCAF
:1008100033CCC58233C5829BED9AEC99E582984032
:100820000CF582EE9BFEED9AFDEC99FC0FD5F0D60F
:10083000E4CEFBE4CDFAE4CCF9A88222B800C1B939
:100840000059BA002DEC8BF084CFCECDFCE5F0CB77
:10085000F97818EF2FFFEE33FEED33FDEC33FCEBB0
:1008600033FB10D703994004EB99FB0FD8E5E4F96B
:10087000FA227818EF2FFFEE33FEED33FDEC33FC58
:10088000C933C910D7059BE99A4007EC9BFCE99A4C
:10089000F90FD8E0E4C9FAE4CCFB2275F010EF2F91
:1008A000FFEE33FEED33FDCC33CCC833C810D70791
:1008B0009BEC9AE899400AED9BFDEC9AFCE899F8CC
:0E08C0000FD5F0DAE4CDFBE4CCFAE4C8F9225F
:00000001FF
