:0C00BF00758920758DFD759850D28E2239
:0700D7003098FDC298AF99BB
:0100DE0022FF
:100028001200491200BF1200D78F0BE50BB430073E
:100038007FC01200A38005AF0B1200EF120094805E
:01004800E5D2
:030091001200A3B7
:0E009400E4FFFE0FBF00010EEF641F4E70F57B
:0100A200223B
:0E00A3008F80C2A6C2A5D2A7120094C2A722C7
:0E00B1008F80D2A6C2A5D2A7120094C2A722A9
:100003008B088A09890AAB08AA09A90A1200636046
:1000130013050AE50A7002050914F9120063FF12B9
:0500230000B180E222A3
:0300EF000200B15B
:100049007F381200917F0C1200917F061200A312D3
:0A00590000947F011200A30200943E
:10007C00EF7006ED2480FC8007BF0104ED24C0FC6A
:05008C00AF040200A317
:0800DF0012007CAF030200B126
:0800E7007F011200A302009446
:030000000200CB30
:0C00CB00787FE4F6D8FD75810B02002858
:10006300BB010689828A83E0225002E722BBFE029B
:09007300E32289828A83E49322CE
:00000001FF
