:0900E700010900010800010A00F2
:03000B0002009A56
:10009A00C0E0C0D0758C4C758A00E509701720B095
:1000AA000F0508E508640A701EB2A07509018017D9
:1000BA00750800801230B00C050AE50AB40A087502
:0C00CA0009008003750A00D0D0D0E0329D
:1000D600758901758C4CE4F58AD28CD2A9D2AF8091
:0100E600FE1B
:0300000002000EED
:0C000E00787FE4F6D8FD75810A020055E9
:10001A000200D6E493A3F8E493A34003F68001F226
:10002A0008DFF48029E493A3F85407240CC8C333E7
:10003A00C4540F4420C8834004F456800146F6DFB6
:10004A00E4800B01020408102040809000E7E47E5F
:10005A00019360BCA3FF543F30E509541FFEE493AB
:10006A00A360010ECF54C025E060A840B8E493A372
:10007A00FAE493A3F8E493A3C8C582C8CAC583CA9D
:10008A00F0A3C8C582C8CAC583CADFE9DEE780BE55
:0100F000000F
:00000001FF
