:03000000020A8071
:0C0A8000787FE4F6D8FD758123020AC7D8
:060B2D000420020C0A0B7B
:0808DF008F0B8E0A8D098C08B5
:1008E700751E00751F07E4FFFEFDFCAB0BAA0AA9E6
:1008F70009A808D31208CE4044E47B0AFAF9F8AFF6
:100907000BAE0AAD09AC0812083CAE02AF03E51FF7
:1009170025E0240EF8A60608A607AF0BAE0AAD0918
:10092700AC08E47B0AFAF9F812083C8F0B8E0A8DA3
:10093700098C08E51F151F70AD151E80A9E50D254B
:10094700E0240EF8E6FE08E6FF4E700475803F22AD
:10095700EF64014E700475800622EF64024E700446
:1009670075805B22EF64034E700475804F22EF643D
:10097700044E700475806622EF64054E700475801E
:100987006D22EF64064E700475807D22EF64074E7A
:10099700700475800722EF64084E700475807F220B
:0909A700EF64094E700375806FC6
:0109B0002224
:1009B100D2A2D2A3D2A4AF23AE22AD21AC20E4F5C2
:1009C1000CF50D1208DF120B0CC2A2D2A3D2A4AFF8
:1009D10023AE22AD21AC20750C00750D011208DF8C
:1009E100120B0CD2A2C2A3D2A4AF23AE22AD21AC72
:1009F10020750C00750D021208DF120B0CC2A2C289
:100A0100A3D2A4AF23AE22AD21AC20750C00750D8D
:100A1100031208DF120B0CD2A2D2A3C2A4AF23AEE1
:100A210022AD21AC20750C00750D041208DF120BEC
:100A31000CC2A2D2A3C2A4AF23AE22AD21AC2075B9
:100A41000C00750D051208DF120B0CD2A2C2A3C255
:100A5100A4AF23AE22AD21AC20750C00750D06129A
:100A610008DF120B0CC2A2C2A3C2A4AF23AE22ADF7
:0F0A710021AC20750C00750D071208DF020B0C6D
:100B0C00E4FFFE758901758AFD758C4BD28C308D96
:100B1C00FDC28CC28D0FBF00010EEF64144E70E34A
:010B2C0022A6
:100A8C000209B1E493A3F8E493A34003F68001F2C6
:100A9C0008DFF48029E493A3F85407240CC8C3336B
:100AAC00C4540F4420C8834004F456800146F6DF3A
:100ABC00E4800B0102040810204080900B2DE47E92
:100ACC00019360BCA3FF543F30E509541FFEE4932F
:100ADC00A360010ECF54C025E060A840B8E493A3F6
:100AEC00FAE493A3F8E493A3C8C582C8CAC583CA21
:100AFC00F0A3C8C582C8CAC583CADFE9DEE780BED9
:010B330000C1
:1008000075F008758200EF2FFFEE33FECD33CDCCAF
:1008100033CCC58233C5829BED9AEC99E582984032
:100820000CF582EE9BFEED9AFDEC99FC0FD5F0D60F
:10083000E4CEFBE4CDFAE4CCF9A88222B800C1B939
:100840000059BA002DEC8BF084CFCECDFCE5F0CB77
:10085000F97818EF2FFFEE33FEED33FDEC33FCEBB0
:1008600033FB10D703994004EB99FB0FD8E5E4F96B
:10087000FA227818EF2FFFEE33FEED33FDEC33FC58
:10088000C933C910D7059BE99A4007EC9BFCE99A4C
:10089000F90FD8E0E4C9FAE4CCFB2275F010EF2F91
:1008A000FFEE33FEED33FDCC33CCC833C810D70791
:1008B0009BEC9AE899400AED9BFDEC9AFCE899F8CC
:0E08C0000FD5F0DAE4CDFBE4CCFAE4C8F9225F
:1008CE00EB9FF5F0EA9E42F0E99D42F0E89C45F080
:0108DE0022F7
:00000001FF
