:10000300E4F58012005D7F5A1200AD1200827F5525
:100013001200AD1200827F4C1200AD1200827F519C
:100023001200AD1200827F411200AD1200827F5296
:100033001200AD1200827F4E1200AD1200827F418A
:100043001200AD1200827F491200AD1200827F4E72
:0A0053001200AD120082E4FEFF224D
:03007F0012009FCD
:10008200E4FFFEE4FDFC0DBD00010CED64644C7068
:0C009200F50FBF00010EEF64644E70E734
:01009E00223F
:0300C700020082B2
:0E009F008F80C2A6C2A5D2A71200C7C2A72298
:0E00AD008F80D2A6C2A5D2A71200C7C2A7227A
:10005D007F0112007F7F3812007F7F0E12009F12EA
:10006D0000827F1012009F1200827F8012009F027B
:02007D000082FF
:030000000200BB40
:0C00BB00787FE4F6D8FD75810702000391
:00000001FF
