:0300000002008B70
:0C008B00787FE4F6D8FD758107020003C1
:10006B00E4FFFE758901E4F58AF58CD28C308DFDA9
:0F007B00C28CC28D0FBF00010EEF640A4E70E4FD
:01008A002253
:10000300C2A2C2A3C2A475803F12006B7580061200
:10001300006B75805B12006B75804F12006B7580EF
:100023006612006B75806D12006B75807D12006B1C
:1000330075800712006B75807F12006B75806F12DD
:10004300006B75807712006B75807C12006B758076
:100053003912006B75805E12006B75807912006B2C
:0800630075807112006B80989A
:00000001FF
