:030000000200A556
:0C00A500787FE4F6D8FD7581170200ECAE
:1001F50010080008000100020006000700090009B8
:020205000002F5
:1001E200758901758A99758CEFD28C308DFDC28C20
:0301F200C28D2299
:10000300D2A2D2A3D2A47B007A007908E4FDFC1229
:1000130001391201E2C2A2D2A3D2A47D011201319D
:100023001201E2D2A2C2A3D2A47D021201311201B3
:10003300E2C2A2C2A3D2A47B007A0079087D037C2A
:10004300001201391201E2D2A2D2A3C2A47B007A28
:100053000079087D047C001201391201E2C2A2D2A8
:10006300A3C2A47B007A0079087D057C00120139C4
:100073001201E2D2A2C2A3C2A47B007A0079087D56
:10008300067C001201391201E2C2A2C2A3C2A47B00
:10009300007A0079087D077C001201391201E2021F
:0200A300000358
:080131007B007A0079087C00D4
:10013900ED25E0FFEC338F82F5831201AAFFAEF0C3
:100149004E700475803F22EF64014E70047580067D
:1001590022EF64024E700475805B22EF64034E70D7
:100169000475804F22EF64044E700475806622EF97
:1001790064054E700475806D22EF64064E70047537
:10018900807D22EF64074E700475800722EF6408B2
:100199004E700475807F22EF64094E700375806F7D
:0101A9002233
:1000B100020003E493A3F8E493A34003F68001F262
:1000C10008DFF48029E493A3F85407240CC8C33350
:1000D100C4540F4420C8834004F456800146F6DF1F
:1000E100E4800B01020408102040809001F5E47EB9
:1000F100019360BCA3FF543F30E509541FFEE49314
:10010100A360010ECF54C025E060A840B8E493A3DA
:10011100FAE493A3F8E493A3C8C582C8CAC583CA05
:10012100F0A3C8C582C8CAC583CADFE9DEE780BEBD
:0102070000F6
:1001AA00BB0110E58229F582E5833AF583E0F5F093
:1001BA00A3E0225009E92582F886F008E622BBFE70
:1001CA000AE92582F8E2F5F008E222E5832AF583B6
:0801DA00E993F5F0A3E993227B
:00000001FF
