:030000000201C03A
:0C01C000787FE4F6D8FD7581250200036D
:08015600C2A5D2A77F017E00C3
:10015E00E4FDFCC3ED9FEC9E5015E4FBFA0BBB00D7
:0F016E00010AEB64724A70F50DBD00010C80E4CC
:01017D00225F
:0D01B3008F80C2A6120156C2A70F02015E86
:0501A1002517F8E6FF40
:0D01A6008F80D2A6120156C2A70F02015E83
:06012B008B1A8A1B891CDF
:10013100E4F51DF51EAB1AAA1BA91C851E82851D9F
:10014100831200FEFF600D1201A6051EE51E70E57B
:04015100051D80E127
:010155002287
:1000D0008F1F8D208B218A228923E51F7008E52040
:1000E000540F4480800BE51FB4010AE520540F44EF
:0E00F000C0FF1201B3AB21AA22A92302012BEB
:10017E007F147E0012015E12015E7F381201B37F82
:10018E000C1201B37F061201B37F011201B37F80FF
:03019E000201B3A8
:1000030012017E758920758DFD759850E4F587D2B0
:100013008EE4F5173098FDC298740F2517F8A6994A
:100023000517E517B408EDE4F524F525F582F58306
:10003300FFFEFDFC7B0180027B00EB604D740F2F04
:10004300F8E6FB740D2DF8A60374122FF8E6FB7483
:10005300082525F8A60374152FF8E6FBAA82740B6E
:100063002AF8A603EF75F003A42411F8E6F50A0DA8
:10007300BD00010C0525E52570020524A30FBF0073
:10008300010EEF64024E70AC80AEE4F517E517C3C2
:10009300940140030200147F011201B37F80120117
:1000A300B3740D1201A1740E1201A1AF0A1201A6BD
:1000B30074081201A174091201A1AF0A1201A674F6
:0D00C3000B1201A1740C1201A1051780C0E1
:1000FE00BB010CE58229F582E5833AF583E02250B7
:10010E0006E92582F8E622BBFE06E92582F8E22200
:0D011E00E58229F582E5833AF583E493221A
:00000001FF
