:0400030002080000EF
:03000B0002009A56
:10009A00C0E00509E50970020508641545087006FF
:1000AA00C2A2C2A3C2A4E509642A45087006D2A264
:1000BA00C2A3C2A4E509643F45087006C2A2D2A33E
:1000CA00C2A4E509645445087006D2A2D2A3C2A408
:1000DA00E509646945087006C2A2C2A3D2A4E5096B
:1000EA00647E45087006D2A2C2A3D2A4E50964932D
:1000FA0045087006C2A2D2A3D2A4E50964A845089D
:10010A00700CD2A2D2A3D2A4B2A0F508F509D0E00D
:01011A0032B2
:0D011B00758902758CFF75A882D28C80FE5C
:0300000002000EED
:0C000E00787FE4F6D8FD758109020055EA
:10001A0002011BE493A3F8E493A34003F68001F2E0
:10002A0008DFF48029E493A3F85407240CC8C333E7
:10003A00C4540F4420C8834004F456800146F6DFB6
:10004A00E4800B0102040810204080900003E47E43
:10005A00019360BCA3FF543F30E509541FFEE493AB
:10006A00A360010ECF54C025E060A840B8E493A372
:10007A00FAE493A3F8E493A3C8C582C8CAC583CA9D
:10008A00F0A3C8C582C8CAC583CADFE9DEE780BE55
:0100070000F8
:00000001FF
