:10023E001430003F0006005B004F0066006D007D2D
:10024E000007007F00670C220003000D0008000469
:10025E000000000210120001000400000000000067
:10026E000000000000080A0800010002000300045C
:02027E00000579
:1001E400D2A4D2A3D2A2E4FF120003D2A4D2A3C207
:1001F400A27F01120003D2A4C2A3D2A27F021200E2
:1002040003D2A4C2A3C2A27F03120003C2A4D2A336
:10021400D2A27F04120003C2A4D2A3C2A27F0512F9
:100224000003C2A4C2A3D2A27F06120003C2A4C2C6
:0A023400A3C2A27F0712000380A6F8
:10028100E4F52EF52F052FE52F7002052EB4F4F5B8
:10029100E52EB401F0E4F52EF52F052FE52F7002C0
:0B02A100052EB410F5E52EB427F02266
:100003008F45EF25E02412F8E6FC08E664014C7006
:1000130013F5458533801202810545C3E5456480A8
:10002300948A40EFEF25E02412F8E6FC08E64C70D2
:1000330013F5458531801202810545C3E54564808A
:10004300948A40EFEF25E02412F8E6FC08E6640208
:100053004C7013F5458535801202810545C3E5458E
:100063006480948A40EFEF25E02412F8E6FC08E66A
:1000730064034C7013F5458537801202810545C32F
:10008300E5456480948A40EFEF25E02412F8E6FC0E
:1000930008E664044C7013F5458539801202810526
:1000A30045C3E5456480948A40EFEF25E02412F8C8
:1000B300E6FC08E664054C7013F545853B801202A7
:1000C300810545C3E5456480948A40EFEF25E0242C
:1000D30012F8E6FC08E664064C7013F545853D808E
:1000E3001202810545C3E5456480948A40EFEF25FC
:1000F300E02412F8E6FC08E664074C7013F5458526
:100103003F801202810545C3E5456480948A40EF30
:10011300EF25E02412F8E6FC08E664084C7013F5BA
:10012300458541801202810545C3E5456480948A73
:1001330040EFEF25E02412F8E6FE08E664094E706E
:1001430013F5458543801202810545C3E545648067
:05015300948A40EF2238
:03000000020158A2
:0C015800787FE4F6D8FD75814502019F18
:100164000201E4E493A3F8E493A34003F68001F2CC
:1001740008DFF48029E493A3F85407240CC8C3339C
:10018400C4540F4420C8834004F456800146F6DF6B
:10019400E4800B010204081020408090023EE47EBB
:1001A400019360BCA3FF543F30E509541FFEE49360
:1001B400A360010ECF54C025E060A840B8E493A327
:1001C400FAE493A3F8E493A3C8C582C8CAC583CA52
:1001D400F0A3C8C582C8CAC583CADFE9DEE780BE0A
:01028000007D
:00000001FF
